S00C00006C6162342E73726563B5
S11300000C9456000C946B000C946B000C946B00D5
S11300100C946B000C946B000C946B000C946B00B0
S11300200C946B000C946B000C946B000C946B00A0
S11300300C946B000C946B000C946B000C946B0090
S11300400C946B000C946B000C946B000C946B0080
S11300500C946B000C946B000C946B000C946B0070
S11300600C946B000C946B000C946B000C946B0060
S11300700C946B000C946B000C946B000C946B0050
S11300800C946B000C946B000C946B000C946B0040
S11300900C946B000C946B000C946B000C946B0030
S11300A00C946B000C946B000C946B0011241FBE19
S11300B0CFEFDAE0DEBFCDBF11E0A0E0B1E0EAE5CA
S11300C0FDE002C005900D92A83BB107D9F70E944C
S11300D079020C94AB060C94000000000000089513
S11300E0000000000000000000000000000000000C
S11300F000000000000000008A95803089F7089510
S1130100282F8AEFEDDF8AEFEBDF8AEFE9DF8AEF52
S1130110E7DF2A952030A9F70895382F8AEFF0DF1A
S11301208AEFEEDF8AEFECDF8AEFEADF3A953030D0
S1130130A9F70895EF92FF920F931F93CF93DF9344
S1130140CDB7DEB761970FB6F894DEBF0FBECDBF53
S11301507C0143E064E071E080E191E00E94BA0137
S113016000E010E0BE016F5F7F4F8EE191E00E94DE
S11301702901882371F089819A819C0121503109D8
S11301802436310530F40F5F1F4FE816F90669F580
S113019008C041E06DE271E08CE391E00E94BA0195
S11301A0E1CF41E06CE271E08BE491E00E94BA019E
S11301B01F930F938BE591E09F938F93CE0101964C
S11301C07C019F938F930E949F0343E06CE271E054
S11301D0C7010E94BA010F900F900F900F900F90DB
S11301E00F9008301105E0F413C08E159F0540F4FC
S11301F041E06CE271E087E691E00E94BA01B2CF7F
S113020041E06CE271E080E791E00E94BA01AACF7C
S113021043E06CE271E08AE791E00E94BA0107C012
S113022043E064E871E081E991E00E94BA016196DB
S11302300FB6F894DEBF0FBECDBFDF91CF911F91F3
S11302400F91FF90EF9008950E944F020E940602C2
S11302500895CF92DF92EF92FF920F931F93CF9363
S1130260DF9300D000D0CDB7DEB76C017B010E94D4
S1130270F801C6010E943E0282E00E94000260E092
S113028081E00E94340200E00E945302182F882368
S1130290D9F3833279F18A3281F40023E1F00150F9
S11302A0602F81E00E94340260E281E00E94E40158
S11302B0602F81E00E9434020EC0033060F4682F86
S11302C081E00E94E401E1E0F0E0EC0FFD1FE00FAB
S11302D0F11D10830F5FF6018081833020F4612FBC
S11302E081E00E94E4010E9453020E9453028111A2
S11302F0FACFCACFFE01E00FF11D1182002361F194
S11303002FEF200FFE01E20FF11D4181405350E019
S11303102223F9F08AE090E02150E1E0F0E0EC0FD4
S1130320FD1FE20FF11D30813053389FB001399F1A
S1130330700D1124460F571FBC01660F771F880FDD
S1130340991F880F991F880F991F860F971F2111D6
S1130350E3CFF70151834083802F0F900F900F90CC
S11303600F90DF91CF911F910F91FF90EF90DF904D
S1130370CF900895EF92FF920F931F93CF937C0138
S11303808B01C42F80E00E9400020E94F801C70183
S11303900E943E0260E081E00E943402C8010E9493
S11303A03E028C2F0E948D00CF911F910F91FF90E0
S11303B0EF90089591B39F70807F892B81BB5F9AE2
S11303C00E946D005F980895CF93C62F811102C0DB
S11303D05E9801C05E9A8C2F0E94DA018C2F829560
S11303E0807F0E94DA018DE20E947000CF9108950F
S11303F061E080E00E94E40182E00E9480000895B0
S1130400682F6F6080E00E94E401089580EF80BB54
S113041080EC8AB984E10E9480005E9880E30E94A7
S1130420DA018AE00E94800080E30E94DA018AE017
S11304300E94800080E30E94DA018AE00E9480002A
S113044080E20E94DA018DE20E94700068E280E09E
S11304500E94E40180E00E9400020E94F80166E02C
S113046080E00E94E401089520E4829FC0011124E9
S11304706068682B80E00E94E4010895CF93DF93C5
S1130480FC016081662341F0EC01219681E00E9429
S1130490E40169916111FACFDF91CF9108951DB8FC
S11304A080EF84B908950F931F93CF93DF93C0E037
S11304B0D0E085B1282F2F70CE0182959295907F40
S11304C09827807F9827822B85B98AE00E94800034
S11304D0669B05C0FE01E356FE4F808105C0219650
S11304E0CC30D10531F780E0DF91CF911F910F918E
S11304F008950E9424010E948C0243E069EA71E09D
S113050083EB91E00E94BA0184E690E00E94A90284
S113051001960E949A00F8CF80E480937C00EAE779
S1130520F0E087E0808380E8808381E080937E0030
S1130530808180648083808184FFFDCF80917900F5
S11305406091780070E0782B80E090E00E94960340
S11305500895CF93DF93009751F0EC010E94480374
S11305609E0140E050E00E94BC02CB0102C080E04A
S113057090E0DF91CF910895052E97FB1EF400942F
S11305800E94D30257FD07D00E94DB0207FC03D070
S11305904EF40C94D30250954095309521953F4FDD
S11305A04F4F5F4F089590958095709561957F4F5B
S11305B08F4F9F4F0895A1E21A2EAA1BBB1BFD016A
S11305C00DC0AA1FBB1FEE1FFF1FA217B307E4072E
S11305D0F50720F0A21BB30BE40BF50B661F771F86
S11305E0881F991F1A9469F7609570958095909566
S11305F09B01AC01BD01CF0108958F929F92AF92F0
S1130600BF92CF92DF92EF92FF92CF93DF93EC01F0
S1130610688179818A819B816115710581059105C4
S113062021F464E279ED8BE597E02DE133EF41E0CD
S113063050E00E94BC0249015A019B01AC01A7EAA7
S1130640B1E40E9452066B017C01ACEEB4EFA5014B
S113065094010E946006DC01CB018C0D9D1DAE1D32
S1130660BF1DB7FF03C00197A109B04888839983D0
S1130670AA83BB83BC01CD019F77DF91CF91FF900B
S1130680EF90DF90CF90BF90AF909F908F900895A0
S11306908F929F92AF92BF92CF92DF92EF92FF928E
S11306A06091000170910101809102019091030118
S11306B0611571058105910521F464E279ED8BE5FD
S11306C097E02DE133EF41E050E00E94BC02490184
S11306D05A019B01AC01A7EAB1E40E9452066B01E6
S11306E07C01ACEEB4EFA50194010E946006DC012C
S11306F0CB018C0D9D1DAE1DBF1DB7FF03C001971F
S1130700A109B0488093000190930101A0930201D4
S1130710B0930301BC01CD019F77FF90EF90DF9070
S1130720CF90BF90AF909F908F90089560930001F9
S11307307093010180930201909303010895AEE048
S1130740B0E0E5EAF3E00C9473060D891E8986E0B7
S11307508C831A8309838FEF9FE79E838D83AE0179
S1130760475E5F4F6F89788DCE0101960E94C10369
S1130770EF81F885E00FF11F10822E96E4E00C94CF
S11307808F06ABE0B0E0E7ECF3E00C9465066C0197
S11307907B018A01FC0117821682838181FFCCC10F
S11307A0CE0101963C01F6019381F70193FD8591F9
S11307B093FF81917F01882309F4BAC1853239F40A
S11307C093FD859193FF81917F01853229F4B601D0
S11307D090E00E94B805E7CF912C212C312CFFE149
S11307E0F315D8F08B3279F038F4803279F0833213
S11307F0A1F4232D20611DC08D3261F0803369F492
S1130800232D216016C0832D8260382EE32DE460F1
S11308103E2E2AC0F32DF8601DC037FC2DC020EDFC
S1130820280F2A3040F08E32B9F436FC81C1232DD2
S11308302064322E19C036FE06C08AE0989E200D30
S11308401124922E11C0EAE02E9E200D1124222E96
S1130850F32DF0623F2E08C08C3621F4832D80687E
S1130860382E02C0883641F4F70193FD859193FF39
S113087081917F018111B3CF982F9F7D955493303F
S113088028F40C5F1F4F9FE399830DC0833631F02A
S1130890833771F0833509F059C021C0F801808194
S11308A089830E5F1F4F88248394912C530113C0B6
S11308B02801F2E04F0E511CF801A080B18036FEF1
S11308C003C0692D70E002C06FEF7FEFC5010E9485
S11308D0AD054C018201F32DFF773F2E16C0280190
S11308E022E0420E511CF801A080B18036FE03C004
S11308F0692D70E002C06FEF7FEFC5010E94A20571
S11309004C01F32DF0683F2E820133FC1BC0822D75
S113091090E088169906B0F4B60180E290E00E9457
S1130920B8052A94F4CFF50137FC859137FE8191FF
S11309305F01B60190E00E94B80521102A9421E0DD
S1130940821A91088114910471F7E8C0843611F079
S1130950893641F5F80137FE07C0608171818281D3
S113096093810C5F1F4F08C060817181072E000CBA
S1130970880B990B0E5F1F4FF32DFF763F2E97FFC9
S113098009C090958095709561957F4F8F4F9F4FCB
S1130990F0683F2E2AE030E0A3010E94F405882E7F
S11309A0861845C0853731F4232D2F7EB22E2AE0D8
S11309B030E025C0932D997FB92E8F36C1F018F4FD
S11309C0883579F0B5C0803719F0883721F0B0C088
S11309D0E92FE061BE2EB4FE0DC0FB2DF460BF2EE6
S11309E009C034FE0AC0292F2660B22E06C028E0B2
S11309F030E005C020E130E002C020E132E0F8013F
S1130A00B7FE07C060817181828193810C5F1F4FA3
S1130A1006C06081718180E090E00E5F1F4FA301EA
S1130A200E94F405882E8618FB2DFF773F2E36FE94
S1130A300DC0232D2E7FA22E891458F434FE0BC032
S1130A4032FC09C0832D8E7EA82E05C0B82CA32CA1
S1130A5003C0B82C01C0B92CA4FE0FC0FE01E80DE0
S1130A60F11D8081803321F49A2D997EA92E09C02D
S1130A70A2FE06C0B394B39404C08A2D867809F00C
S1130A80B394A3FC11C0A0FE06C0B21488F4280CD1
S1130A90922C9B180EC0B21460F4B60180E290E070
S1130AA00E94B805B394F7CFB21418F42B1802C0FF
S1130AB0982C212CA4FE10C0B60180E390E00E9483
S1130AC0B805A2FE17C0A1FC03C088E790E002C0ED
S1130AD088E590E0B6010CC08A2D867859F0A1FE15
S1130AE002C08BE201C080E2A7FC8DE2B60190E077
S1130AF00E94B805891438F4B60180E390E00E949E
S1130B00B8059A94F7CF8A94F301E80DF11D80811A
S1130B10B60190E00E94B8058110F5CF222009F4B7
S1130B2042CEB60180E290E00E94B8052A94F6CF46
S1130B30F6018681978102C08FEF9FEF2B96E2E149
S1130B400C948106FC010590615070400110D8F7A7
S1130B50809590958E0F9F1F0895FC016150704001
S1130B6001900110D8F7809590958E0F9F1F0895DE
S1130B700F931F93CF93DF93FB01238121FD03C0C8
S1130B808FEF9FEF2CC022FF16C04681578124812E
S1130B9035814217530744F4A081B1819D012F5F31
S1130BA03F4F318320838C93268137812F5F3F4FC2
S1130BB03783268314C08B01EC01FB010084F1858B
S1130BC0E02D0995892BE1F6D80116968D919C911B
S1130BD01797019617969C938E931697CE01DF91E3
S1130BE0CF911F910F910895FA01AA27283051F14E
S1130BF0203181F1E8946F936E7F6E5F7F4F8F4F4A
S1130C009F4FAF4FB1E03ED0B4E03CD0670F781FA8
S1130C10891F9A1FA11D680F791F8A1F911DA11D8D
S1130C206A0F711D811D911DA11D20D009F46894C6
S1130C303F912AE0269F11243019305D3193DEF66E
S1130C40CF010895462F4770405D4193B3E00FD024
S1130C50C9F7F6CF462F4F70405D4A3318F0495D0F
S1130C6031FD4052419302D0A9F7EACFB4E0A695F2
S1130C709795879577956795BA95C9F70097610514
S1130C80710508959B01AC010A2E0694579547956A
S1130C9037952795BA95C9F7620F731F841F951F5F
S1130CA0A01D08950E949C06A59F900DB49F900DD1
S1130CB0A49F800D911D11240895B7FF0C94520632
S1130CC00E945206821B930B08952F923F924F92DB
S1130CD05F926F927F928F929F92AF92BF92CF92C8
S1130CE0DF92EF92FF920F931F93CF93DF93CDB7D1
S1130CF0DEB7CA1BDB0B0FB6F894DEBF0FBECDBF49
S1130D0009942A88398848885F846E847D848C8419
S1130D109B84AA84B984C884DF80EE80FD800C8122
S1130D201B81AA81B981CE0FD11D0FB6F894DEBF05
S1130D300FBECDBFED010895A29FB001B39FC001C6
S1130D40A39F700D811D1124911DB29F700D811DF3
S10D0D501124911D0895F894FFCFBB
S1130D5A01000000746865206E756D6265723F005B
S1130D6A43616E20796F7520677565737300456EEC
S1130D7A746572206E756D6265723A2000626574DC
S1130D8A7765656E20312D3130302100456E7465EA
S1130D9A722061206E756D62657200436F727265AE
S1130DAA6374206E756D626572210047756573738D
S1130DBA65733A20257500546F6F206C6F77210094
S1130DCA546F6F20686967682100476F6F64206AEF
S1130DDA6F6221006E6578742074696D652E2E2EFB
S1130DEA00426574746572206C75636B0031343724
S1130DFA2A323538303336392352C4444441204DDB
S10B0E0A4947004A41210000A0
S9030000FC
